:100000000C94E1070C9409080C9409080C94090855
:100010000C9409080C9409080C9409080C9409081C
:100020000C9409080C9409080C9409080C947E0C93
:100030000C9409080C9409080C9409080C940908FC
:100040000C943C120C9409080C9409080C940908AF
:100050000C9409080C9409080C9409080C940908DC
:100060000C940F110C940908C008C308C608C908ED
:10007000CC08CF08D208F308F608F908FC08FF08F6
:100080000209050908090B090E09110914091709C4
:100090001A091D0920092309260929097A0A7D0A56
:1000A000800A830A860A890A8C0A8F0A084AD73B83
:1000B0003BCE016E84BCBFFDC12F3D6C74319ABD37
:1000C00056833DDA3D00C77F11BED9E4BB4C3E915B
:1000D0006BAAAABE000000803F000CB85E9201CF60
:1000E000B832E0A71405FC566A8100FC96EA805FEE
:1000F000CA0CF073D96A8B19F7D4CFABCD66234203
:1001000037AF3AAB4B4BEBBCAA1837DC6C552B42E4
:10011000DA089159A9887AAC895AAA61503753955F
:10012000A280212A05D0CD6A68AB0E5333C7AE0B2F
:100130006A8A9D52972EE86B32EEBAAAC2BAB4A868
:10014000EBAAAB1C97E62FAB69AA345A5EAFA99A0B
:10015000924C7FB4F66A4B2AF2563B4B4849AFD9D2
:10016000E9293EA4F8161BE0195705FC946280DFCC
:100170004A2D1080DF521DF04B99017E2E43E01472
:10018000A52A5403001C3085BA009EAFF87F0C7876
:10019000C695013FA528E0B7520B04E0B75407FC11
:1001A0005266809FCB565DF584A5AE597536131106
:1001B000B67A95C96E78FAEA95C5DC1E16935B1A75
:1001C0006ABB73CC4E5974154D3C3B545B96998A6F
:1001D0002D030C51E9806E562DD0A2EA98CD734EB6
:1001E000CB871794CCC7A5184E81A76E976A5A0182
:1001F000D99E5DDAE50DA87B56196712A4AAD965C8
:100200001B8950BA67A76338229D5A9C8E218DD9CD
:10021000BBB3019E7155C04F2906F8ADD40201F859
:100220002DD501BF9419E0E732044E51AA423500A2
:10023000C00153A80BE0F98AFF072A4D9C7D4AE2D2
:10024000843549CA34ABDDD66AC5D4A5C9188B4EEE
:1002500057D7AE6B487AD292BBAE2E9A4D2BF1B6E1
:10026000EA64CEB5C5EF2A535CAED45CABCA35A9FF
:10027000425B2960884A050C3521806E565DEBD4BF
:10028000B926A7769D515F1C9CA775515E7152DF00
:100290005567752E459B575DEC8895BE5E5DB1A197
:1002A0006D717BADD58796E6ED75541B5A16ABDBA9
:1002B000534358682C167FF261D1BB490199373AF4
:1002C000E0BB0E077CB7E580D73B1DF0CA2402A730
:1002D0002855A11A000A18D28D019BAB21708A52B1
:1002E00015AAF1FF664E92BD4367BB354AAAF46872
:1002F0001CD6ACB0322C7159B2620BB7A6634C3A23
:100300002C4396AE21E98A0A4EBA9AE8D63325DE06
:10031000A8626CEDE2782B4D61B806BB8C38359540
:100320003159D99232858BB5752AB65C5165250C49
:10033000186A8201DDACA678EB35534CBDE2611C36
:10034000CD6CC9488631E48E272D9DCE813A1FB7EA
:100350006CA600AC5ADCFAE91DA86B76996751E0EF
:10036000A8D9619DD980AA1E9B6D5426F65AA2F683
:10037000A18DD4BCB5019E7155C04F2906F8ADD4EE
:100380000201F82DD501BF9419E0E732044E51AABD
:1003900042350040014FA9316073B5FF076E4A9C9A
:1003A000624AEB84A508D22E699296AA4833A569C1
:1003B0009A8B248F90A663AAD6429CD7AC3E1BCBC7
:1003C000525AB2DAE83AC368CDAA42DEF0E02CAB6A
:1003D000086D3583B38C32D4E12AEA3386D89B3A50
:1003E00069CF58736EEAA2DCE3CCD5785273B5338B
:1003F000379348D914AE525C3574120386A8E400D2
:10040000070830D404011A1FFB7F0C78C695013F02
:10041000A528E0B7520B04E0B75407FC5266809F52
:10042000CB4E56E524A7B63D4515535ABAF554D9D7
:100430006D58EAEA55A7B86EE5ABC798EC8594AD60
:100440006E4BB49752B62A6C316C98DB46F3F8B217
:1004500069E61BCDE36ABBA92F12AF4BE3C1DE896E
:1004600001435472800314A0C0FF036C657ED3CD9A
:100470001C8B83BA4B37B3C30E5636D9DD61D875A2
:100480009C34A1AE6B4972DC83D6AEAEDAD6707EF8
:10049000B3BAEA5CCBE3CE1A9A6BF1B0C76B6EBA13
:1004A00039D25EB5B3DAE4F49CEDDE96C38322B1B3
:1004B000019E7155C04F2906F8ADD40201F82DD523
:1004C00001BF9419E0E732044E51AA4235001430BE
:1004D000A41B033657FB7FAD9AD110ABE78C622586
:1004E000438C5E32F29904A966C9C86762E4EE25BE
:1004F000A3985990B2E78C724601A99E3DFA9918CB
:10050000B57A769B8725F4E95965ED8AB0AB560A32
:10051000E00F1303FCE866809FD30CF06799050C8D
:10052000F093BB027EA944E014A52A54030C30A426
:100530009B02365743E014A52A54E3FF01A18F5CC8
:10054000B55692E4E1F4DD0B596BE3538C1444157A
:100550008B463AB3037BBE998949B772C4EA4C0112
:10056000D82EC803A3AB91392C178DAE36E6347F55
:100570003DE6EA136C79733BAA1BB0D33CFD6A4F8E
:10058000F109359EA5BEFF0F695F30C44C77E73394
:100590005C5F8999AABBF808E037570E5080020FBC
:1005A0000AC82E8C01D18595348BAA7456BDCAE831
:1005B000A6CA29CB2A92EECAA4362B2FAA3C439A6C
:1005C000ACBC78F3D068D4B26A454A2AA6C993C4B1
:1005D0002909C7248DB1D3CD0821708A5215AA01EB
:1005E000E08063C21470941901A632FB7F6ACE8C3E
:1005F000F4D49386A549E231731B962648C6255943
:100600009A1B67ECD43469EA163133929CA188ECCA
:1006100008EA72BA2AA62DB4CBC9BA19B5D43527BF
:10062000EBA929CC679FAC65E7E09E32AA11D1CD3A
:10063000C34D6B7BA054F54C6768A1C4C4178FA54C
:100640004637975ED2AE12DD5D7A89BB7272F5D8FD
:10065000D902A8B25801DF9B09E0B77401FCE6A9F2
:10066000809F5205F067FBFF03A96B21B922669FAB
:10067000AEC7E1707B72BB5BDFEA56BB5C65CB66E5
:10068000C53D67D7AB6D2E643093EEB1CD3D92B9C9
:100690009ADAB28E40129A6AEB968F7898B32AB49F
:1006A000D348AA2F7DA77BFB0C73715CCE6E5C5286
:1006B0006C73799A134B8945E96E4942A957FF3FFC
:1006C0006E281CE338B4B83E33AAE5F0B2BA26D29D
:1006D0005D6CF5A99A9CB09035A7AA76DC52D69CA1
:1006E000A256B7709DB3B2564CC27DCACA7A11F1F8
:1006F0008831ADE89134A2CA88D608ADF44C5C804C
:10070000A9525AB7D2B830B619C3484AE2B164CD3B
:100710003397A0E996B1CCD8026E5FDA3AD330B8FD
:100720007F29EB4C8D10B1E5FF0163EAD2283767D2
:10073000AD7EF926AC58B39A911C34B3C968461300
:1007400054EF25A31E85D17C96882152B3714FA406
:100750008025424B378282D92C1ED34C06EAB564E1
:10076000ACCB3B50E5E2B22FEB40538FCB39BD21F0
:10077000752DCE6F7A671290ECD9FF0F0CF82945D2
:1007800001BF955A2000BFA53AE0973203FC5CB642
:100790008A2E42DD6CD32A3B2FD3B4CDABCAA6D46C
:1007A0002B37B53A3A8F105B99FA6CC3CC78D56A7F
:1007B0008A0D0BF54763AC9A33C563A7B12AEC5099
:1007C000D79C9666B092C295019E322DDB0BE3E278
:1007D000ACADED4D39B9D5C6B50F13CCE19BC7D142
:1007E0009D93667C2EE7704994BEA55CC32572C5B7
:1007F000A6720FEF2859ABDD3DAA9158ADFA7F06DE
:100800007890C4003F6618E0A78C047C9F1180DFBD
:10081000DA57D15DBB2B2D59456BA9C6B2A614ADD5
:100820009B185917044E51AA42354001358D17E0E7
:10083000C49A02BC5485C0294A55A80604604837AA
:10084000076CAEB6AAA95354A5CBAABB4B12B737B7
:100850006B183151DC5FAF793447D1583DD6D11494
:10086000D57271DB4751D4C8D7FF0F08683A05012C
:100870005DA41260D80A024C5F2180E9D215D06CC9
:10088000D94A9B0991942D2BEF2A955237AFA2D9C3
:100890005209FD4C80612B08307D8500A64B47E056
:1008A00014A52A54030A3074D9E8BB34F28CD563FA
:1008B000E956492B1FAF6D0427AA5853EE19933000
:1008C000FD4BB96770E4AAD5EE6D96B1A66687B701
:1008D00067228FA9FDFF04C8CE8C01CB943360DA68
:1008E0000C010C13AE80EAD34A1DC4B426391E7520
:1008F000A2B39CAC7E5451EC52AAFA510573C1E5E7
:10090000DC479DC28AB56A5740F54A0158DAA58D81
:10091000C324895BAFB1B420E45E8BC7DA9DA354D6
:10092000BE4EF78C4198F1C63D3D0AEAF423F734F8
:10093000479C5393DCD315636D4D32CF9841A4B9D6
:10094000F8FF010218A252021660C05013256B2C4A
:10095000C4DC52AFB28B702ACDBAAAAAC760CCFD54
:10096000AA8B5D8535EDA32BD33152F22AA07AA54F
:10097000002CEDD2FA9E8C457DF5D8BA55B2ACD597
:10098000EDE8DE512A5797A70741AF5AECB6EE19AA
:100990007D7AB19BBA23CCE95AFF0F0AE84ACD0110
:1009A000DBB933C0A6540CA434D9F20A6CBBB353E0
:1009B0000E5DA6259B6F75CA6152DC7449A98AC475
:1009C000764DD7B176C055A665D826995C56ADB997
:1009D0002523D57C3296E99B207DCB3CFA55AE99F8
:1009E0001A30FC4B3CFF1F69CE5C74D49AF6F1F4CC
:1009F000839B98F9E253B460A66A6B4ED6439A8AF9
:100A0000AC396937E5A6B2E6A44DB925CB9A934E29
:100A10002D6265E94E36553A69A45D55CF8E6ABAA6
:100A200066D5CD2B99E79AD337AFEC9E6BCED44CDD
:100A30008A79AC1A7B93A9E1F1695C95957AD8C261
:100A4000763583E1EE6ED2D52DBA796409D748E8C0
:100A50001C9A265DCDA047849BF4348DAE1E59FEB2
:100A60001F09582A2500CB9F956C142189A978B3BA
:100A70005BECBAB523134697993ED6B92E79C95B7C
:100A8000D84741531FC7E19C855422ECFADBDD2394
:100A90009349B8E678FF3FA5EFD6503B678FB93B47
:100AA00023497F3387310CE922497D56DF69AA3912
:100AB0006D59DD825692DAE5749DA7A6D39A533715
:100AC0009956A66F4F599D7B892FDDC528AA154BD6
:100AD000A3D6AE8C8AAD543BA7A93BB3545D33E695
:100AE000A65CCB75CD5EC6DAA4CAB935AE67B8468A
:100AF00040B628BBF1F6B7B94720B628BBFF0F0CAC
:100B0000F85E4C01BF957BC00216B0C0C8BA364D26
:100B1000B72737BBC529BA716DB7B5ABA8CEBDD461
:100B2000DEA6B25AB1346A1DA73537E55AAE6BEE70
:100B3000D2B6264C37F54DB99A3439B7C6E11E8185
:100B4000D8A2ECE6C77FFEFB7F0CE82E94014DBADD
:100B50004A4003166869361CE9BAB8E539707284F0
:100B6000DB51A4A84EA3C977B1CAD652A871ED2A09
:100B70007B4BA6E037B75ADD488E94F164CE6D19F1
:100B80005591BC6ED7AD1EF5AA777AC67022CDC737
:100B9000F989CFFF030CE82ED4020698D25503162C
:100BA000687D17E96EBC658C456DA6E996DDDEF6BD
:100BB000B6B75E75D493A59C7B57B36E7D1219AD05
:100BC000DC298D4F93B487D2B6FCDDAC225602707F
:100BD00018CA1826B590D4DE6B29DA2D25178D7921
:100BE00088D448795DF77475A194A9D1F2ED9EAAD5
:100BF00051A6D49E7FED6FFE2BD1C73D89FAB70D6C
:100C000057D3B4F53755372EE6B2D757FF0F0898AC
:100C10003193021CE080075AD61C6B782EBDE52D5F
:100C20004FDDADABAA6DC92302564C930005109061
:100C30008931FC3F0E383C2D005FB61960A89093B7
:100C4000362BE299B34ED97D89852FBED5AD4F3F66
:100C500064ABA43EBAD3599A2E75D5396D6B0A2D63
:100C60003CECE5DD1FFEB0E7FF0304F8AD4C0216D7
:100C7000B0800656355DA82A6DB9CD69BB2B55B538
:100C80002DB7DBFD9C0DD8328A7BBC0200030CB172
:100C90002E80DFD23520010E60E0FF0106B8593406
:100CA0000027D6386058D391552DAA659D4FD1B8ED
:100CB000391767BFC5AE5A1DB57A06F6A97D9DD214
:100CC0006C55A52675C99BDFFC6E0E633A3470AF78
:100CD0003EFF1F04C87E5C020AA8624303A7A86205
:100CE000434B97DCF214C5A79B7AD39537C31E16E6
:100CF0004A6636F35A896ED43055B532B731B5C12C
:100D0000692CE9F7BC961239D4B5FDDA9B0FD19066
:100D1000EEF5E4170245287711D9409E45DD2B33C7
:100D2000717ABA0B13952DF9F97F04A8BE5C00DD2A
:100D3000A511A0FA72027497C601099CA6AB300DEA
:100D4000CE7AEA6A4A3935FBAA8B1BC676F7AB2EF8
:100D50007919CAD5EFCA570814A1DC45640300C04D
:100D6000FF03E6A81A355DD69A354B8C4E6B1AD622
:100D7000A651B2B5EE589A134FB5356768263D4D6A
:100D8000979CBEC9752F6D7BBB5BDFFA36A7EFBAA8
:100D900025DA16DF69AC230545F9ACB98FA3972096
:100DA000739F54CE1E45C2A24E3ED3D53DB1792489
:100DB0000DD7484C6EE12CDEFF0F08684E9D021CDB
:100DC00060C08C6912B0C028AB8C9CC02DBB387938
:100DD0003115A3B6E416B7DCF56E57DF545B85BE5C
:100DE000D9E35CC6D66DB1A5BF995B3B5A3009AF5C
:100DF0002FEDEC31C45CBED633DDAD8887E2D2F294
:100E0000F4E0162AB2E3631FF9F0E7FF01664EA88B
:100E10007A8DEDC4B5CD89D4BCA2DBD127BE334CCD
:100E2000D94F9B4D578A76BEF5A9AA2E4FD5CDB77F
:100E3000D9435B87134C0DA775AB7B3EE3196F7FDE
:100E4000A7A7F9D0305B1D9E9A3444BCB67DFE1F27
:100E50000998DA220137781A2085D1503A33118166
:100E60005D5B95D44404769DD5A93AABF0A13EB71D
:100E7000BAD5A92BEBCCA03EB7BDC35A3BC8696716
:100E8000BDFBE867BFCA9DE97408E7CE777806899D
:100E90003257D6F1F18F7DFE1F656989C57366DF14
:100EA000E98C330E41C6EA5BEF7AF5332550E5EA6B
:100EB00039D7C56E0814C1DD456403008000AE70EB
:100EC00033C073331A10408F2B14F87F0868210D3C
:100ED000030428CE9203234ACAA61CDAADB470EDEF
:100EE0001964B7D39145513589EA66DEEAE0ABD3A0
:100EF000294F1FFA52F690523B257FDDCB9D72722F
:100F00008C79CB6FFAD2109EB42CE14F25703ADC6D
:100F1000BA2F6FC175CBF2FF69FB59DD51D5D7B53B
:100F20006F0A78C052010F50ACF6A81615F27BEA92
:100F30001947D064EBAD76B5EBD196246E626D5B4C
:100F40001F0AA7B9C5ABFD1A62F0F0E26C731C73FF
:100F5000521D19946FCE7DED6BD982DC48C72E717E
:100F60008BBBDFFF1F00000008000201000003042C
:100F700007000000000000000001020408102040EB
:100F80008001020408102001020408102004040457
:100F90000404040404020202020202030303030322
:100FA00003000000002300260029000000000025A7
:100FB0000028002B0000000000240027002A000069
:100FC000251011241FBECFEFD8E0DEBFCDBF12E049
:100FD000A0E0B1E0EAEDFDE202C005900D92A43779
:100FE000B107D9F723E0A4E7B2E001C01D92AA3609
:100FF000B207E1F71FE0C2ECDFE004C02297FE0178
:101000000E94B516C03CD107C9F70E94CE130C94BC
:10101000EB160C940000DC01ED91FC910190F08145
:10102000E02D0994CF92DF92EF92FF920F931F93DE
:10103000CF93DF936B017C0197FF0EC06DEE75E0DF
:1010400088E792E00E94810BF094E094D094C094E1
:10105000C11CD11CE11CF11C20E4C21622E4D20602
:101060002FE0E206F104DCF0C701B60120E432E42F
:101070004FE050E00E9494168B01D82FC92FCA016F
:10108000B9010E94120867EE79E088E792E00E94B9
:10109000810B6801ED2EFC2E81E090E002C080E023
:1010A00090E028EEC21623E0D206E104F104FCF041
:1010B000C701B60128EE33E040E050E00E949416EC
:1010C0008B01D82FC92FCA01B9010E94120865E906
:1010D0007BE088E792E00E94810B6801ED2EFC2EF8
:1010E00084E6C816D104E104F10414F106C024E634
:1010F000C216D104E104F104CCF0C701B60124E624
:1011000030E040E050E00E9494168B01D82FC92FA8
:10111000CA01B9010E94120863ED7CE088E792E001
:101120000E94810B6801ED2EFC2E02C0009771F029
:10113000C114D104E104F10409F49FC069E676E02A
:1011400088E792E00E94810B81E090E024E1C216E2
:10115000D104E104F104C4F1C701B6012AE030E092
:1011600040E050E00E949416F9013397E730F10512
:1011700020F4EC5CFF4F0C94B3166BE979E014C0DB
:1011800063E479E011C066ED78E00EC06BE678E0CC
:101190000BC06FEF77E008C06CE777E005C06AE24C
:1011A00077E002C060EC76E088E792E00E94810B75
:1011B000C701B6012AE030E040E050E00E949416FA
:1011C0006B017C0181E090E0F6013197E331F1059C
:1011D00020F4E55CFF4F0C94B316892B09F04DC049
:1011E00068E17FE03EC06DE07EE03BC06CE97CE002
:1011F00038C069E47BE035C06CEC7EE032C06AEB5D
:101200007DE02FC06AE67CE02CC06FEF7AE029C059
:1012100069E97EE026C062E67DE023C064E37CE00D
:1012200020C067E97AE01DC060E57EE01AC06AE28E
:101230007DE011C06CEC7EE00EC06EE07CE00BC087
:101240006AE67CE008C06FEF7AE005C069E97EE0FD
:1012500002C062E67DE088E792E00E94810B61E6D1
:101260007AE088E792E0DF91CF911F910F91FF9094
:10127000EF90DF90CF900C94810BDF91CF911F9175
:101280000F91FF90EF90DF90CF90089560E08AE09B
:101290000E94351361E089E00E94351360E089E027
:1012A0000C946E130E94460961E088E00E94351399
:1012B00061E088E00E946E1361E08BE00E943513CC
:1012C00060E08BE00E946E1362E08DE00E943513B7
:1012D00081EA92E00E94950F6EE170E081EA92E06F
:1012E0000E94A90F62E070E081EA92E00E940B0880
:1012F00060E070E081EA92E00E940B0881EA92E0EF
:101300000C9422108F929F92AF92BF92CF92DF9255
:10131000EF92FF924B015C018AE00E94A4130197B7
:1013200019F161E089E00E946E1361E070E080E0F5
:1013300090E00E94A91260E089E00E946E130E9472
:1013400086126B017C018AE00E94A413892B81F430
:101350000E9486126C197D098E099F09683E7340B0
:101360008105910528F4EFCF60E070E0CB011AC051
:101370000E9486126B017C018AE00E94A4130197EF
:1013800059F40E9486126C197D098E099F0968150F
:1013900079058A059B0580F30E9486126C197D09E8
:1013A0008E099F09FF90EF90DF90CF90BF90AF9094
:1013B0009F908F900895CF92DF92EF92FF920F93BC
:1013C0001F93CF93DF9300D000D0CDB7DEB78DE071
:1013D0000E94A413892B09F029C16EE170E081EA13
:1013E00092E00E94A90F63E070E081EA92E00E941F
:1013F0000B0881EA92E00E94221046E050E06EE184
:1014000070E081EA92E00E941F1081EA92E00E945F
:10141000FE0E069744F181EA92E00E94060FC12C6D
:10142000D12CD82E81EA92E00E94060FC82AD92A30
:1014300081EA92E00E94060FE12CF12CF82E81EA5D
:1014400092E00E94060F8701082B192B81EA92E097
:101450000E94060FE12CF12CF82E81EA92E00E9406
:10146000060FE82AF92AC114D10409F45EC0E11478
:10147000F10409F45AC0012B09F457C0B6018827BA
:1014800077FD8095982F0E9440159B01AC01B70114
:10149000882777FD8095982F29833A834B835C8337
:1014A0000E94401529813A814B815C810E9452142F
:1014B00020E030E044E353E40E94F8152BED3FE0D8
:1014C00049E450E40E94A5140E940D15CB018258F6
:1014D0009E4F6DE270E00E945E16CB0168E070E006
:1014E0000E945E168830910500F5FC01E25BFF4F1B
:1014F0000C94B3166DE973E014C064EE72E011C091
:1015000067ED74E00EC06EE871E00BC06AE074E055
:1015100008C06AED70E005C06BE674E002C06AE3E3
:1015200072E088E792E00E94810B66E970E080E05B
:1015300090E00E94A91260EB77EA82E090E00E94BE
:1015400082092AE330E040E050E00E949416211521
:1015500031054105510549F020937402309375021D
:1015600040937602509377020CC08CE291E0A0E0A9
:10157000B0E08093740290937502A0937602B093CA
:101580007702609174027091750280917602909159
:1015900077022AE0C22ED12CE12CF12CA701960172
:1015A0000E94941620937402309375024093760241
:1015B00050937702CA01B901A70196010E949416BF
:1015C000CA01B9010E94120860EA75E088E792E05A
:1015D0000E94810B60917402709175028091760275
:1015E00090917702A70196010E9494160E9412081A
:1015F0006DE375E088E792E00E94810B68E875E092
:1016000088E792E00E94810B6CE271E080E090E05C
:101610000F900F900F900F90DF91CF911F910F912E
:10162000FF90EF90DF90CF900C94A9120F900F9045
:101630000F900F90DF91CF911F910F91FF90EF903E
:10164000DF90CF9008956295262F237384E0289F22
:10165000900111246C7C66956695622B862F8575AA
:10166000880F6A7A6695862B0895AF92BF92CF92C3
:10167000DF92EF92FF920F931F93CF93DF93EC01D2
:10168000B62E08811981F80164910E94230BE82E7F
:10169000F12CFE2CEE24AA80CB2CD12CC6018A0D75
:1016A000911D09973CF0F80131966491CE010E949A
:1016B000230BE82AC7010A2C02C0880F991F0A943D
:1016C000E2F720E130E02C193D0902C0969587959C
:1016D0002A95E2F72B2D2A0D283010F42A8306C014
:1016E00028502A830F5F1F4F19830883DF91CF9102
:1016F0001F910F91FF90EF90DF90CF90BF90AF9030
:1017000008950F931F93CF93DF93EC018B018B818F
:1017100081111FC061E083E00E94351383E2809352
:10172000B00021E02093B100109270001092800070
:1017300089E080938100109285001092840080EDF2
:1017400097E0909389008093880082E080936F00F7
:101750002B83198308831A8264E0CE010E94350B23
:10176000182F811105C010929F0210929E02B8C0DE
:101770008F30E9F410929F0210929E0210929D0207
:1017800010929C0210929B0210929A02109299025F
:10179000109298021092970210929602109295025F
:1017A00010929402109293021092920299C0E82F24
:1017B000F0E0ED5AFD4F808190E090939F0280937E
:1017C0009E0261E0CE010E94350B082F66E0CE013B
:1017D0000E94350BE82FF0E0ED5EFD4F8081809395
:1017E000A00201117DC065E0CE010E94350BE82FFB
:1017F000F0E0EE0FFF1FED52FE4F8081918190933C
:101800009D0280939C0265E0CE010E94350BE82F7B
:10181000F0E0EE0FFF1FED56FE4F80819181909317
:101820009B0280939A0264E0CE010E94350BE82F60
:10183000F0E0ED57FE4F80818093990264E0CE0185
:101840000E94350BE82FF0E0ED58FE4F8081809329
:1018500098028091A002882309F442C064E0CE017E
:101860000E94350BE82FF0E0ED59FE4F8081809308
:10187000970264E0CE010E94350BE82FF0E0ED5AAC
:10188000FE4F80818093960264E0CE010E94350B6A
:10189000E82FF0E0ED5BFE4F80818093950263E0DE
:1018A000CE010E94350BE82FF0E0E55CFE4F808111
:1018B0008093940263E0CE010E94350BE82FF0E0A4
:1018C000ED5CFE4F80818093930263E0CE010E9425
:1018D000350BE82FF0E0E55DFE4F808180939202AA
:1018E00069E170E080E090E00E94A9121F3009F0E9
:1018F00033CFDF91CF911F910F9108951F920F92D7
:101900000FB60F9211242F923F924F925F926F92D7
:101910007F928F929F92AF92BF92CF92DF92EF927F
:10192000FF920F931F932F933F934F935F936F9368
:101930007F938F939F93AF93BF93EF93FF93CF9337
:10194000DF93CDB7DEB7A297DEBFCDBF8091910206
:101950008093B40078949091A002992301F1809132
:101960009002891720F48F5F8093900202C010923A
:101970009002E0919002E93280F5F0E0EE5FFE4FD8
:10198000A08120919E0230919F02BB27A7FDB095B8
:101990000E94D016BB27A92F982F872F20C0809197
:1019A0000001909101019C013695279580FF03C0AD
:1019B00080E098EB02C080E090E028273927309340
:1019C00001012093000180919E0290919F0220FDD1
:1019D00006C091958195910902C080E090E08090C9
:1019E0009302992487FC909460908C0270908D02F1
:1019F0006091920240918E0250918F026403900197
:101A0000659F300D1124220F232F221F330BFC0161
:101A1000E21BF30B869CC001879C900D969C900D59
:101A20001124880F892F881F990BE81BF90B409010
:101A30009402552447FC509440918A0250918B02A5
:101A40005A834983449EC001459E900D549E900D3B
:101A50001124880F892F881F990B1F01281A390A12
:101A600080919502482F552747FD50955C834B8305
:101A700040918802509189025E834D836B817C8105
:101A8000649FC001659F900D749F900D1124880F75
:101A9000892F881F990BA101481B590B58874F8329
:101AA00080919602482F552747FD50955A874987C0
:101AB00040918602509187025C874B8769857A85C1
:101AC000649FC001659F900D749F900D1124880F35
:101AD000892F881F990B4F815885481B590B5E87AA
:101AE0004D8780919702482F552747FD5095588B79
:101AF0004F8740918402509185025A8B498B6F85A4
:101B00007889649FC001659F900D749F900D11248A
:101B1000880F892F881F990B4D855E85481B590BAF
:101B20005C8B4B8B80919802482F552747FD509531
:101B30005E8B4D8B4091820250918302588F4F8B68
:101B40006D897E89649FC001659F900D749F900D83
:101B50001124880F892F881F990B4B895C89481B9A
:101B6000590B5A8F498F80919902482F552747FD6D
:101B700050955C8F4B8F40918002509181025E8F17
:101B80004D8F6B8D7C8D649FC001659F900D749F00
:101B9000900D1124880F892F881F990B498D5A8D1C
:101BA000481B590B58A34F8FA0909A02B0909B02EC
:101BB000E0907E02F0907F029501D7010E94B91655
:101BC000AFE09595879577956795AA95D1F76A01C6
:101BD000C61AD70A00919C0210919D0240917C0286
:101BE00050917D025AA349A39801DA010E94B916C7
:101BF000BFE09595879577956795BA95D1F7A6013A
:101C0000461B570B411562E056073CF441157EEF29
:101C100057072CF440E05EEF02C04FEF51E08E9E7C
:101C2000C0018F9E900D9E9E900D1124880F892FCC
:101C3000881F990B860D971D90938F0280938E02BB
:101C4000429CC001439C900D529C900D1124880F22
:101C5000892F881F990BE981FA818E0F9F1F90931E
:101C60008D0280938C02EB81FC812F813885E29F6D
:101C7000C001E39F900DF29F900D1124880F892FD2
:101C8000881F990BED81FE818E0F9F1F90938B0211
:101C900080938A02E985FA852D853E85E29FC00101
:101CA000E39F900DF29F900D1124880F892F881FBC
:101CB000990BEB85FC858E0F9F1F90938902809373
:101CC0008802EF85F8892B893C89E29FC001E39F58
:101CD000900DF29F900D1124880F892F881F990B6A
:101CE000E989FA898E0F9F1F90938702809386025D
:101CF000ED89FE89298D3A8DE29FC001E39F900D09
:101D0000F29F900D1124880F892F881F990BEF895E
:101D1000F88D8E0F9F1F9093850280938402EB8D28
:101D2000FC8D2F8D38A1E29FC001E39F900DF29FA3
:101D3000900D1124880F892F881F990BED8DFE8D32
:101D40008E0F9F1F90938302809382029501D6018C
:101D50000E94B9162FE095958795779567952A95F6
:101D6000D1F76E0D7F1D7093810260938002980100
:101D7000DA010E94B9163FE09595879577956795AA
:101D80003A95D1F7E9A1FAA16E0F7F1F70937F02F8
:101D900060937E0250937D0240937C025595479557
:101DA00055954795405840939102A2960FB6F894E6
:101DB000DEBF0FBECDBFDF91CF91FF91EF91BF91FD
:101DC000AF919F918F917F916F915F914F913F91D3
:101DD0002F911F910F91FF90EF90DF90CF90BF90C8
:101DE000AF909F908F907F906F905F904F903F90BB
:101DF0002F900F900FBE0F901F9018958091D102D9
:101E000090E02091D202821B910908952091D20284
:101E10008091D102281750F4E22FF0E0ED52FD4FEF
:101E2000808190E02F5F2093D20208958FEF9FEF83
:101E30000895E091D2028091D102E81730F4F0E0E9
:101E4000ED52FD4F808190E008958FEF9FEF089550
:101E50000895CF92DF92EF92FF920F931F93CF934B
:101E6000DF937C01CB018A012091AD02222389F00E
:101E7000EB016B01C40ED51ECC15DD0569F069912F
:101E8000D701ED91FC910190F081E02DC7010995FA
:101E9000F3CF642F0E94E610C801DF91CF911F910C
:101EA0000F91FF90EF90DF90CF900895CF93DF9345
:101EB0001F92CDB7DEB769832091AD022223D1F006
:101EC0002091AE02203240F021E030E0FC0133836B
:101ED000228380E090E015C08091AF02E82FF0E00F
:101EE000E055FD4F998190838F5F8093AF0280937F
:101EF000AE0205C061E0CE0101960E94E61081E0CD
:101F000090E00F90DF91CF910895FC01138212822F
:101F100048EE53E060E070E0448355836683778346
:101F200087E692E09183808308951092D202109206
:101F3000D1021092AF021092AE020C94291081E0EF
:101F40008093AD026093D0021092AF021092AE0265
:101F500008950C949F0F0F93062F21E04091AE023D
:101F600060EB72E08091D0020E948F101092AF025D
:101F70001092AE021092AD020F9108958F929F922F
:101F8000AF92BF92CF92DF92EF92FF920F931F9387
:101F9000CF93DF93EC01F62ED42E48015901EE20A9
:101FA00019F10E949F0F1E2D143008F013E01150FC
:101FB000B8F0E881F98128E0129FB0011124A50151
:101FC000940104C056954795379527956A95D2F7A1
:101FD000CA01B9010190F081E02DCE010995E7CF4A
:101FE00060E0CE010E94AB0F4D2D413208F040E27F
:101FF0002C2D63ED72E08F2D0E9447101092D202BB
:102000008093D102DF91CF911F910F91FF90EF90BC
:10201000DF90CF90BF90AF909F908F900895CF9218
:10202000EF920F931F93C22EE12C00E010E0980175
:102030000E94BE0F1F910F91EF90CF90089521E065
:102040000C940F1061E00C94AB0F81EA92E00C94B9
:10205000850F1092600381E080935E0310925D0310
:1020600061E082E10E946E1361E083E10E946E13E1
:10207000E9EBF0E080818E7F808380818D7F80839B
:1020800088E48093B80085E48093BC0008954132D1
:1020900008F043C0909160039111FCCF91E09093C0
:1020A000600320935E032FEF2093F3021092380316
:1020B000240F2093370390935F0390915F03880F61
:1020C000892B80935F0380915D03813061F41092CE
:1020D0005D0380915F038093BB008091BC0083FD12
:1020E000F8CF85EC01C085EE8093BC008091600341
:1020F0008130E1F380913803841710F44091380364
:1021000029E333E0FB01D9018A2F821B841718F4DD
:102110008D918193F9CF842F089580E008950F93D6
:10212000413208F04AC0909160039111FCCF92E0D7
:102130009093600300935E039FEF9093F3021092DD
:10214000380340933703FB0169E373E0DB019A2F07
:10215000961B941718F491919D93F9CF10925F03F9
:1021600090915F03880F892B80935F0380915D03BB
:10217000813061F410925D0380915F038093BB0016
:102180008091BC0083FDF8CF85EC01C085EE809383
:10219000BC00222321F0809160038230E1F3809122
:1021A000F3028F3F61F08091F302803251F0809111
:1021B000F302803341F483E007C081E005C080E092
:1021C00003C082E001C084E00F910895613298F469
:1021D00020916003243089F460931503FC0187E1AA
:1021E00093E0DC012A2F281B261718F421912D9348
:1021F000F9CF80E0089581E0089582E0089585EDAB
:102200008093BC008091BC0084FDFCCF10926003E1
:10221000089585EC8093BC001092600308951F928E
:102220000F920FB60F9211242F933F934F935F930A
:102230006F937F938F939F93AF93BF93EF93FF938E
:102240008091B900887F803609F49EC078F5883285
:1022500009F45DC090F4803109F456C038F4882345
:1022600009F4F5C0883009F44FC0F5C0883109F48D
:102270004EC0803209F45FC0EEC0803409F46AC0F9
:1022800058F4803309F457C0883309F0E4C08093D0
:10229000F3020E940911DFC0803509F44FC0883570
:1022A00009F45DC0883409F0D6C0D3C0883909F478
:1022B000C4C0A8F4883709F467C038F4883609F434
:1022C00063C0803709F460C0C6C0883809F4B5C05F
:1022D000803909F45FC0803809F0BDC05BC0803B25
:1022E00009F483C038F4803A09F466C0883A09F4E6
:1022F0007CC0B1C0803C09F4A4C0883C09F4A1C0F2
:10230000883B09F487C0A7C080915F0310C09091FB
:10231000380380913703981770F5E091380381E016
:102320008E0F80933803F0E0E75CFC4F8081809350
:10233000BB0085EC83C08093F3028BC0E09138032F
:1023400081E08E0F809338038091BB00F0E0E75C62
:10235000FC4F808390913803809137036BC0E091EC
:10236000380381E08E0F809338038091BB00F0E04A
:10237000E75CFC4F808380915E0381116AC081E03D
:1023800080935D0384EA5EC083E0809360031092D3
:10239000F402CFCF8091F402803208F04EC0E09179
:1023A000F40281E08E0F8093F4028091BB00F0E094
:1023B000EB50FD4F8083BDCF0E9409118091F40244
:1023C000803230F4E091F402F0E0EB50FD4F1082E7
:1023D0006091F40270E0E0915903F0915A0385EFA7
:1023E00092E009951092F40236C084E08093600375
:1023F0001092160310921503E0915B03F0915C03B9
:10240000099580911503811105C081E08093150322
:1024100010921703E091160381E08E0F809316034C
:10242000F0E0E95EFC4F80818093BB009091160341
:1024300080911503981708F47CCF85E88093BC0041
:102440000AC085EC8093BC001092600304C0109217
:10245000F3020E94FF10FF91EF91BF91AF919F9106
:102460008F917F916F915F914F913F912F910F903D
:102470000FBE0F901F9018951F920F920FB60F92DC
:1024800011242F933F938F939F93AF93BF9380918A
:10249000620390916303A0916403B091650330914E
:1024A000610323E0230F2D3720F40196A11DB11DF8
:1024B00005C026E8230F0296A11DB11D20936103DC
:1024C0008093620390936303A0936403B0936503C6
:1024D0008091660390916703A0916803B0916903AE
:1024E0000196A11DB11D8093660390936703A0938D
:1024F0006803B0936903BF91AF919F918F913F9112
:102500002F910F900FBE0F901F9018953FB7F89422
:102510008091660390916703A0916803B09169036D
:1025200026B5A89B05C02F3F19F00196A11DB11D2E
:102530003FBF6627782F892F9A2F620F711D811D4B
:10254000911D42E0660F771F881F991F4A95D1F7AA
:102550000895CF92DF92EF92FF92CF93DF936B01BA
:102560007C010E948612EB01C114D104E104F10444
:1025700089F00E94DD130E9486126C1B7D0B683E61
:10258000734090F381E0C81AD108E108F108C851FE
:10259000DC4FEACFDF91CF91FF90EF90DF90CF90AB
:1025A0000895789484B5826084BD84B5816084BDCB
:1025B00085B5826085BD85B5816085BDEEE6F0E0BC
:1025C000808181608083E1E8F0E010828081826018
:1025D0008083808181608083E0E8F0E08081816099
:1025E0008083E1EBF0E0808184608083E0EBF0E0C9
:1025F000808181608083EAE7F0E08081846080836D
:102600008081826080838081816080838081806816
:1026100080831092C1000895833081F028F48130C6
:1026200099F08230A1F008958730A9F08830B9F090
:102630008430D1F4809180008F7D03C08091800030
:102640008F7780938000089584B58F7702C084B51A
:102650008F7D84BD08958091B0008F7703C08091F5
:10266000B0008F7D8093B0000895CF93DF9390E00A
:10267000FC01E758F04F2491FC01E357F04F84919F
:10268000882349F190E0880F991FFC01EB54F04F2B
:10269000A591B4918555904FFC01C591D4919FB7F8
:1026A000611108C0F8948C91209582238C938881C5
:1026B00082230AC0623051F4F8948C91322F309505
:1026C00083238C938881822B888304C0F8948C9117
:1026D000822B8C939FBFDF91CF9108950F931F930F
:1026E000CF93DF931F92CDB7DEB7282F30E0F901EB
:1026F000EB59F04F8491F901E758F04F1491F9012B
:10270000E357F04F04910023C9F0882321F0698337
:102710000E940C136981E02FF0E0EE0FFF1FE555DA
:10272000F04FA591B4919FB7F8948C91611103C0BB
:102730001095812301C0812B8C939FBF0F90DF9157
:10274000CF911F910F910895CF93DF93282F30E001
:10275000F901EB59F04F8491F901E758F04FD4910A
:10276000F901E357F04FC491CC2391F081110E94FD
:102770000C13EC2FF0E0EE0FFF1FEF55F04FA5917B
:10278000B4912C912D2381E090E021F480E002C0EF
:1027900080E090E0DF91CF91089508950E94D112DA
:1027A0000E94CD130E945209C0E0D0E00E94DB09D4
:1027B0002097E1F30E940000F9CF08955058BB27FD
:1027C000AA270ED0D4C1C5D130F0CAD120F031F43F
:1027D0009F3F11F41EF495C10EF4E095E7FB8BC109
:1027E000E92FD6D180F3BA176207730784079507DC
:1027F00018F071F49EF5EEC10EF4E0950B2EBA2F91
:10280000A02D0B01B90190010C01CA01A0011124F6
:10281000FF27591B99F0593F50F4503E68F11A16A2
:10282000F040A22F232F342F4427585FF3CF469533
:1028300037952795A795F0405395C9F77EF41F1655
:10284000BA0B620B730B840BBAF09150A1F0FF0F1F
:10285000BB1F661F771F881FC2F70EC0BA0F621F0B
:10286000731F841F48F4879577956795B795F795FB
:102870009E3F08F0B3CF9395880F08F09927EE0F8D
:1028800097958795089565D158F080E891E009F40F
:102890009EEF66D128F040E851E059F45EEF09C0A0
:1028A00030C198C1E92FE07873D168F3092E052A69
:1028B000C1F3261737074807590738F00E2E07F8D7
:1028C000E02569F0E025E0640AC0EF6307F80094B2
:1028D00007FADB01B9019D01DC01CA01AD01EF93EB
:1028E00043D045D10AD05F91552331F02BED3FE025
:1028F00049E450FD49EC63CF0895DF93DD27B92FFC
:10290000BF7740E85FE31616170648075B0710F429
:10291000D92F67D19F938F937F936F93CCD1ECEA9C
:10292000F0E0F2D024D12F913F914F915F916CD183
:10293000DD2349F09058A2EA2AED3FE049EC5FE33D
:10294000D0785D274DDFDF9112C10CD010C108D1C6
:1029500040F0FFD030F021F45F3F19F0CCC05111AE
:102960003AC1CFC015D198F39923C9F35523B1F3D8
:10297000951B550BBB27AA2762177307840738F0EE
:102980009F5F5F4F220F331F441FAA1FA9F333D04D
:102990000E2E3AF0E0E830D091505040E695001C01
:1029A000CAF729D0FE2F27D0660F771F881FBB1FBD
:1029B000261737074807AB07B0E809F0BB0B802D97
:1029C000BF01FF2793585F4F2AF09E3F510568F0E3
:1029D00092C001C15F3FECF3983EDCF3869577959A
:1029E0006795B795F7959F5FC9F7880F911D9695E5
:1029F000879597F90895E1E0660F771F881FBB1F41
:102A0000621773078407BA0720F0621B730B840BED
:102A1000BA0BEE1F88F7E095089504D06894B111C1
:102A2000DAC00895BDD088F09F5790F0B92F99274C
:102A3000B751A0F0D1F0660F771F881F991F1AF0C9
:102A4000BA95C9F712C0B13081F0C4D0B1E0089591
:102A5000C1C0672F782F8827B85F39F0B93FCCF312
:102A6000869577956795B395D9F73EF490958095BF
:102A7000709561957F4F8F4F9F4F0895E89409C0DF
:102A800097FB3EF490958095709561957F4F8F4FA1
:102A90009F4F9923A9F0F92F96E9BB279395F695B7
:102AA000879577956795B795F111F8CFFAF4BB0F35
:102AB00011F460FF1BC06F5F7F4F8F4F9F4F16C099
:102AC000882311F096E911C0772321F09EE8872F23
:102AD000762F05C0662371F096E8862F70E060E0DF
:102AE0002AF09A95660F771F881FDAF7880F969558
:102AF000879597F9089597F99F6780E870E060E0FF
:102B000008959FEF80EC0895DF93CF931F930F9369
:102B1000FF92EF92DF927B018C01689405C0DA2E60
:102B2000EF0172D0FE01E894A59125913591459170
:102B30005591AEF3EF0154DEFE019701A801DA943E
:102B400079F7DF90EF90FF900F911F91CF91DF9178
:102B5000089500240A941616170618060906089503
:102B600000240A9412161306140605060895092E69
:102B70000394000C11F4882352F0BB0F40F4BF2BD8
:102B800011F460FF04C06F5F7F4F8F4F9F4F089518
:102B900057FD9058440F551F59F05F3F71F047950E
:102BA000880F97FB991F61F09F3F79F087950895F3
:102BB000121613061406551FF2CF4695F1DF08C012
:102BC000161617061806991FF1CF8695710561052F
:102BD00008940895E894BB2766277727CB0197F9D7
:102BE00008959B01AC0160E070E080E89FE3ADCE0A
:102BF0000BD0BDCFAEDF28F0B3DF18F0952309F07E
:102C00007ACF7FCF1124E7CFC3DFA0F3959FD1F315
:102C1000950F50E0551F629FF001729FBB27F00D8A
:102C2000B11D639FAA27F00DB11DAA1F649F6627DF
:102C3000B00DA11D661F829F2227B00DA11D621F2E
:102C4000739FB00DA11D621F839FA00D611D221FE8
:102C5000749F3327A00D611D231F849F600D211DCC
:102C6000822F762F6A2F11249F5750408AF0E1F06F
:102C700088234AF0EE0FFF1FBB1F661F771F881FB8
:102C800091505040A9F79E3F510570F034CFA3CF2B
:102C90005F3FECF3983EDCF3869577956795B795A3
:102CA000F795E7959F5FC1F7FE2B880F911D9695CD
:102CB000879597F908959B01AC019ACF97FB072E52
:102CC00016F4009407D077FD09D00E94D71607FCB0
:102CD00005D03EF4909581959F4F0895709561952C
:102CE0007F4F0895A1E21A2EAA1BBB1BFD010DC048
:102CF000AA1FBB1FEE1FFF1FA217B307E407F507AC
:102D000020F0A21BB30BE40BF50B661F771F881F87
:102D1000991F1A9469F760957095809590959B011D
:102D2000AC01BD01CF010895052E97FB1EF4009460
:102D30000E94AB1657FD07D00E94721607FC03D005
:102D40004EF40C94AB1650954095309521953F4F1D
:102D50004F4F5F4F089590958095709561957F4F87
:102D60008F4F9F4F0895EE0FFF1F0590F491E02DB8
:102D700009940E94C116332312F48A1B9B0B0C94F6
:102D8000D216A29FB001B39FC001A39F700D811DF9
:102D90001124911DB29F700D811D1124911D089564
:102DA0000E94C116B7FF0895821B930B0895AA1BBA
:102DB000BB1B51E107C0AA1FBB1FA617B70710F026
:102DC000A61BB70B881F991F5A95A9F78095909558
:0A2DD000BC01CD010895F894FFCF77
:102DDA000100002AD432B212251402E1C5025F5A58
:102DEA00050F26FCA5A5D6DDDCFC252B22210FFF2D
:102DFA00F8EEEDEFF7F6FA00030201CDDFF1041663
:102E0A00203B4DC0D4E8FC1025394DC0D8F0071F2F
:102E1A00374F66B3BFCBD7E3EFFB07131F2B3743FD
:102E2A004F5A66C0CBD6E1ECF7030E19242F3A4568
:102E3A00505B66AEBAC5D1DDE8F4FF0B17222E3916
:102E4A0045515CAEBCCAD8E6F4010F1D2B39475573
:102E5A0063717E929FADBAC8D5E3F0FE0B19263492
:102E6A00414F5C00AE80B480BB40C380CB40D4C02D
:102E7A00DD80E780F1C0FB00064010401A002440C4
:102E8A002D0036403EC045C04C00538058C05D40BE
:102E9A00624066C069C06C806FC071C07380750083
:102EAA0077807EC0828083C0834084C0844085004E
:102EBA0086808780888089C08A008C408D008FC078
:102ECA0090C092009940A180AB40B840C7C0D8C01A
:102EDA00EB000040144027C038C0478054C05E0051
:102EEA0067406D00101112131415161718191A1BC2
:102EFA001C1D1E1F202122232425262728292A2B90
:102F0A002D2F31333536393B3D3F424547494D4FE9
:102F1A005155575C5F63666A6E73777B80858A8FCB
:102F2A00959AA00002030405070A0F1420293951B3
:102F3A0072A1FF00000000560F290FFE0E060F199E
:042F4A000F280F003D
:00000001FF
